:020000040000fa
:080000000002040000000000f2
:020000040000fa
:100008009a0200009a0200009a0200009a02000078
:100018009a0200009a0200009a0200009a02000068
:100028009a0200009a0200009a0200009a02000058
:100038009a0200009a0200009a0200009a02000048
:020000040000fa
:020000040000fa
:100400000f8020000edf20000e0188000000000099
:10041000000020000000e000020032000001200087
:10042000200288000c000700403820000100200056
:1004300011000700000020000000e0000200320070
:10044000000002000000000078030200000000002d
:100450000040da000000fe004440a9000000200037
:100460000000e0000300320000002000a00188002e
:100470004440a80000000600910188008000780038
:100480000000eb0015003700e280400032a0b4000d
:100490009101ba00e280400032a0b4009102ba009b
:1004a000e280400032a0b4000002eb00472bde00e7
:1004b000f507b200602ce10004003a000059eb009f
:1004c0008301e900fdff3e00040037006128e100e0
:1004d000010032000082eb00040007001101ba00a5
:1004e0000200e000e8ff3a00000006003159ba00bf
:1004f0008301e9000c0032002159ba008301e900b0
:10050000080032000400e00003003a00e2804000ee
:1005100032a0b400f5ff370011d9ba008301e90019
:10052000faff3a008100e800e180400032a0b40008
:0c053000000006000040da000000fe00a1
:020000040000fa
:10053c000600fa0020079800100020001007980011
:10054c000000eb00000f7800050037002e00900033
:10055c001e0040008040eb00014878001e0fe800b0
:10056c001e007800ef0f5000f8ff36002e009000b0
:10057c008000eb00010898002e0090008000eb003a
:10058c00110898001e0090000080fa000000060080
:10059c000400fa00100798001e00900080089000dc
:1005ac001e00900010089000808f500003003a004d
:1005bc0010002000000f78000d0037001e00900086
:1005cc00800890001e009000100890000000e800c9
:1005dc0070006000808f500003003a002000200063
:1005ec00000f7800020037000000eb00000f7800cd
:1005fc001e0078000080fa00000006000800fa00d7
:10060c0020079800614798002e0090001008900079
:10061c000000e80070006000100798002e009000a9
:10062c00800890001e009000808f500003003a005c
:10063c0020002000000f7800080037002e009000ea
:10064c009e00900011089800ae0090001e009000d3
:10065c0000804000ee409000014878001e007800b9
:10066c000080fa00000006000600fa00100798004f
:10067c00210798001e009000800890001e0090003a
:10068c0010089000808f500006003a002e00900059
:10069c008040eb000148780010002000000f78002b
:1006ac000d0037001e009000000890009e00900086
:1006bc00e14078002e009000014878001e00900068
:1006cc00000890008000e8001e00900001089800cf
:1006dc000000eb00000f78001e0078000080fa008c
:1006ec00000006001400fa000e00780090ff0700ce
:0c06fc000000eb000080fa000000060087
:020000040000fa
:0407080000000000ed
:00000001FF
